{
  "contractName": "JournalResearcher",
  "abi": [
    {
      "constant": true,
      "inputs": [
        {
          "name": "",
          "type": "address"
        }
      ],
      "name": "members",
      "outputs": [
        {
          "name": "",
          "type": "bool"
        }
      ],
      "payable": false,
      "stateMutability": "view",
      "type": "function",
      "signature": "0x08ae4b0c"
    },
    {
      "constant": true,
      "inputs": [
        {
          "name": "",
          "type": "uint256"
        }
      ],
      "name": "memberDict",
      "outputs": [
        {
          "name": "name",
          "type": "string"
        },
        {
          "name": "organization",
          "type": "string"
        },
        {
          "name": "addr",
          "type": "address"
        }
      ],
      "payable": false,
      "stateMutability": "view",
      "type": "function",
      "signature": "0x582fac7f"
    },
    {
      "constant": true,
      "inputs": [],
      "name": "totalResearcherNum",
      "outputs": [
        {
          "name": "",
          "type": "uint256"
        }
      ],
      "payable": false,
      "stateMutability": "view",
      "type": "function",
      "signature": "0xf4fb4780"
    },
    {
      "inputs": [],
      "payable": false,
      "stateMutability": "nonpayable",
      "type": "constructor",
      "signature": "constructor"
    },
    {
      "constant": false,
      "inputs": [
        {
          "name": "_name",
          "type": "string"
        },
        {
          "name": "_organization",
          "type": "string"
        }
      ],
      "name": "register",
      "outputs": [],
      "payable": false,
      "stateMutability": "nonpayable",
      "type": "function",
      "signature": "0x3ffbd47f"
    }
  ],
  "bytecode": "0x608060405234801561001057600080fd5b5060008081905550610829806100276000396000f3fe608060405260043610610062576000357c0100000000000000000000000000000000000000000000000000000000900463ffffffff16806308ae4b0c146100675780633ffbd47f146100d0578063582fac7f1461022f578063f4fb478014610382575b600080fd5b34801561007357600080fd5b506100b66004803603602081101561008a57600080fd5b81019080803573ffffffffffffffffffffffffffffffffffffffff1690602001909291905050506103ad565b604051808215151515815260200191505060405180910390f35b3480156100dc57600080fd5b5061022d600480360360408110156100f357600080fd5b810190808035906020019064010000000081111561011057600080fd5b82018360208201111561012257600080fd5b8035906020019184600183028401116401000000008311171561014457600080fd5b91908080601f016020809104026020016040519081016040528093929190818152602001838380828437600081840152601f19601f820116905080830192505050505050509192919290803590602001906401000000008111156101a757600080fd5b8201836020820111156101b957600080fd5b803590602001918460018302840111640100000000831117156101db57600080fd5b91908080601f016020809104026020016040519081016040528093929190818152602001838380828437600081840152601f19601f8201169050808301925050505050505091929192905050506103cd565b005b34801561023b57600080fd5b506102686004803603602081101561025257600080fd5b81019080803590602001909291905050506105d8565b6040518080602001806020018473ffffffffffffffffffffffffffffffffffffffff1673ffffffffffffffffffffffffffffffffffffffff168152602001838103835286818151815260200191508051906020019080838360005b838110156102de5780820151818401526020810190506102c3565b50505050905090810190601f16801561030b5780820380516001836020036101000a031916815260200191505b50838103825285818151815260200191508051906020019080838360005b83811015610344578082015181840152602081019050610329565b50505050905090810190601f1680156103715780820380516001836020036101000a031916815260200191505b509550505050505060405180910390f35b34801561038e57600080fd5b50610397610752565b6040518082815260200191505060405180910390f35b60016020528060005260406000206000915054906101000a900460ff1681565b60011515600160003373ffffffffffffffffffffffffffffffffffffffff1673ffffffffffffffffffffffffffffffffffffffff16815260200190815260200160002060009054906101000a900460ff16151514151515610496576040517f08c379a000000000000000000000000000000000000000000000000000000000815260040180806020018281038252601b8152602001807f43757272656e742075736572206861732072656769737465726564000000000081525060200191505060405180910390fd5b6000808154809291906001019190505550600080549050600033905060018060003373ffffffffffffffffffffffffffffffffffffffff1673ffffffffffffffffffffffffffffffffffffffff16815260200190815260200160002060006101000a81548160ff0219169083151502179055506060604051908101604052808581526020018481526020018273ffffffffffffffffffffffffffffffffffffffff1681525060026000848152602001908152602001600020600082015181600001908051906020019061056a929190610758565b506020820151816001019080519060200190610587929190610758565b5060408201518160020160006101000a81548173ffffffffffffffffffffffffffffffffffffffff021916908373ffffffffffffffffffffffffffffffffffffffff16021790555090505050505050565b6002602052806000526040600020600091509050806000018054600181600116156101000203166002900480601f0160208091040260200160405190810160405280929190818152602001828054600181600116156101000203166002900480156106845780601f1061065957610100808354040283529160200191610684565b820191906000526020600020905b81548152906001019060200180831161066757829003601f168201915b505050505090806001018054600181600116156101000203166002900480601f0160208091040260200160405190810160405280929190818152602001828054600181600116156101000203166002900480156107225780601f106106f757610100808354040283529160200191610722565b820191906000526020600020905b81548152906001019060200180831161070557829003601f168201915b5050505050908060020160009054906101000a900473ffffffffffffffffffffffffffffffffffffffff16905083565b60005481565b828054600181600116156101000203166002900490600052602060002090601f016020900481019282601f1061079957805160ff19168380011785556107c7565b828001600101855582156107c7579182015b828111156107c65782518255916020019190600101906107ab565b5b5090506107d491906107d8565b5090565b6107fa91905b808211156107f65760008160009055506001016107de565b5090565b9056fea165627a7a72305820705df5375efec04ffc21ae09f0f65fae852bc6b1aa85d25464437b958d875d0c0029",
  "source": "pragma solidity ^0.5.0;\n\ncontract JournalResearcher{\n    uint public totalResearcherNum;\n\n    struct Researcher {\n        string name;\n        string organization;\n        address addr;\n    }\n\n    mapping (address => bool) public members;\n    mapping (uint => Researcher) public memberDict;\n\n    constructor() public{\n        totalResearcherNum = 0;\n    }\n\n    function register(string memory _name, string memory _organization) public {\n        require(members[msg.sender] != true, \"Current user has registered\");\n        totalResearcherNum++;\n        uint _id = totalResearcherNum;\n        address _addr = msg.sender;\n        members[msg.sender] = true;\n        memberDict[_id] = Researcher(_name, _organization, _addr);\n    }\n}\n",
  "sourcePath": "/home/kevin/paperschain/contracts/JournalResearcher.sol",
  "compiler": {
    "name": "solc",
    "version": "0.5.0+commit.1d4f565a.Emscripten.clang"
  },
  "schemaVersion": "3.0.6",
  "updatedAt": "2019-05-13T18:32:39.210Z",
  "devdoc": {
    "methods": {}
  },
  "userdoc": {
    "methods": {}
  }
}