{
  "contractName": "Journal",
  "abi": [
    {
      "constant": true,
      "inputs": [],
      "name": "totalPaperNum",
      "outputs": [
        {
          "name": "",
          "type": "uint256"
        }
      ],
      "payable": false,
      "stateMutability": "view",
      "type": "function",
      "signature": "0x04bc9b14"
    },
    {
      "constant": true,
      "inputs": [
        {
          "name": "",
          "type": "uint256"
        }
      ],
      "name": "paperDict",
      "outputs": [
        {
          "name": "title",
          "type": "string"
        },
        {
          "name": "year",
          "type": "uint256"
        },
        {
          "name": "paperAbstract",
          "type": "string"
        },
        {
          "name": "passReviewed",
          "type": "bool"
        },
        {
          "name": "reviewedTimes",
          "type": "uint256"
        }
      ],
      "payable": false,
      "stateMutability": "view",
      "type": "function",
      "signature": "0xc31ceba0"
    },
    {
      "inputs": [],
      "payable": false,
      "stateMutability": "nonpayable",
      "type": "constructor",
      "signature": "constructor"
    },
    {
      "constant": false,
      "inputs": [
        {
          "name": "_title",
          "type": "string"
        },
        {
          "name": "_year",
          "type": "uint256"
        },
        {
          "name": "_paperAbstract",
          "type": "string"
        }
      ],
      "name": "uploadPaper",
      "outputs": [],
      "payable": false,
      "stateMutability": "nonpayable",
      "type": "function",
      "signature": "0x18de6414"
    },
    {
      "constant": false,
      "inputs": [
        {
          "name": "_paperId",
          "type": "uint256"
        },
        {
          "name": "_accept",
          "type": "bool"
        },
        {
          "name": "_comment",
          "type": "string"
        }
      ],
      "name": "reviewPaper",
      "outputs": [],
      "payable": false,
      "stateMutability": "nonpayable",
      "type": "function",
      "signature": "0x47ba22ac"
    }
  ],
  "bytecode": "0x608060405234801561001057600080fd5b50600080819055506108bd806100276000396000f3fe608060405260043610610062576000357c0100000000000000000000000000000000000000000000000000000000900463ffffffff16806304bc9b141461006757806318de64141461009257806347ba22ac146101fb578063c31ceba0146102d9575b600080fd5b34801561007357600080fd5b5061007c610412565b6040518082815260200191505060405180910390f35b34801561009e57600080fd5b506101f9600480360360608110156100b557600080fd5b81019080803590602001906401000000008111156100d257600080fd5b8201836020820111156100e457600080fd5b8035906020019184600183028401116401000000008311171561010657600080fd5b91908080601f016020809104026020016040519081016040528093929190818152602001838380828437600081840152601f19601f820116905080830192505050505050509192919290803590602001909291908035906020019064010000000081111561017357600080fd5b82018360208201111561018557600080fd5b803590602001918460018302840111640100000000831117156101a757600080fd5b91908080601f016020809104026020016040519081016040528093929190818152602001838380828437600081840152601f19601f820116905080830192505050505050509192919290505050610418565b005b34801561020757600080fd5b506102d76004803603606081101561021e57600080fd5b81019080803590602001909291908035151590602001909291908035906020019064010000000081111561025157600080fd5b82018360208201111561026357600080fd5b8035906020019184600183028401116401000000008311171561028557600080fd5b91908080601f016020809104026020016040519081016040528093929190818152602001838380828437600081840152601f19601f8201169050808301925050505050505091929192905050506104eb565b005b3480156102e557600080fd5b50610312600480360360208110156102fc57600080fd5b8101908080359060200190929190505050610647565b60405180806020018681526020018060200185151515158152602001848152602001838103835288818151815260200191508051906020019080838360005b8381101561036c578082015181840152602081019050610351565b50505050905090810190601f1680156103995780820380516001836020036101000a031916815260200191505b50838103825286818151815260200191508051906020019080838360005b838110156103d25780820151818401526020810190506103b7565b50505050905090810190601f1680156103ff5780820380516001836020036101000a031916815260200191505b5097505050505050505060405180910390f35b60005481565b60008081548092919060010191905055506104316107ba565b60a0604051908101604052808581526020018481526020018381526020016000151581526020016000815250905080600160008054815260200190815260200160002060008201518160000190805190602001906104909291906107ec565b506020820151816001015560408201518160020190805190602001906104b79291906107ec565b5060608201518160030160006101000a81548160ff0219169083151502179055506080820151816004015590505050505050565b600015156001600085815260200190815260200160002060030160009054906101000a900460ff16151514151561058a576040517f08c379a000000000000000000000000000000000000000000000000000000000815260040180806020018281038252601c8152602001807f5468652070617065722068617320706173736564207265766965772e0000000081525060200191505060405180910390fd5b60006001600085815260200190815260200160002090508060040160008154809291906001019190505550828160030160006101000a81548160ff02191690831515021790555060408051908101604052808415158152602001838152508160050160008360040154815260200190815260200160002060008201518160000160006101000a81548160ff021916908315150217905550602082015181600101908051906020019061063d9291906107ec565b5090505050505050565b6001602052806000526040600020600091509050806000018054600181600116156101000203166002900480601f0160208091040260200160405190810160405280929190818152602001828054600181600116156101000203166002900480156106f35780601f106106c8576101008083540402835291602001916106f3565b820191906000526020600020905b8154815290600101906020018083116106d657829003601f168201915b505050505090806001015490806002018054600181600116156101000203166002900480601f0160208091040260200160405190810160405280929190818152602001828054600181600116156101000203166002900480156107975780601f1061076c57610100808354040283529160200191610797565b820191906000526020600020905b81548152906001019060200180831161077a57829003601f168201915b5050505050908060030160009054906101000a900460ff16908060040154905085565b60a060405190810160405280606081526020016000815260200160608152602001600015158152602001600081525090565b828054600181600116156101000203166002900490600052602060002090601f016020900481019282601f1061082d57805160ff191683800117855561085b565b8280016001018555821561085b579182015b8281111561085a57825182559160200191906001019061083f565b5b509050610868919061086c565b5090565b61088e91905b8082111561088a576000816000905550600101610872565b5090565b9056fea165627a7a72305820f01392b47b6b10385d59bf8c904f42649e29614a3417f82a4ac3b6b773d61f0a0029",
  "source": "pragma solidity ^0.5.0;\n\nimport \"./JournalResearcher.sol\";\n\ncontract Journal {\n    uint public totalPaperNum;\n\n    struct Review {\n        bool accept;\n        string comment;\n    }\n\n    struct Paper {\n        string title;\n        uint year;\n        string paperAbstract;\n        bool passReviewed;\n        uint reviewedTimes;\n        mapping(uint => Review) reviewLog;\n    }\n\n    mapping(uint => Paper) public paperDict;\n\n    constructor() public {\n        totalPaperNum = 0;\n    }\n\n\n    function uploadPaper(string memory _title, uint _year, string memory _paperAbstract) public {\n        totalPaperNum++;\n        Paper memory newPaper = Paper({\n            title: _title,\n            year: _year,\n            paperAbstract: _paperAbstract,\n            passReviewed: false,\n            reviewedTimes: 0\n        });\n        paperDict[totalPaperNum] = newPaper;\n    }\n\n    function reviewPaper(uint _paperId, bool _accept, string memory _comment) public {\n        require(paperDict[_paperId].passReviewed == false, \"The paper has passed review.\");\n\n        Paper storage reviewedWork = paperDict[_paperId];\n        reviewedWork.reviewedTimes++;\n        reviewedWork.passReviewed = _accept;\n        reviewedWork.reviewLog[reviewedWork.reviewedTimes] = Review(_accept, _comment);\n    }\n}\n",
  "sourcePath": "/home/kevin/paperschain/contracts/Journal.sol",
  "compiler": {
    "name": "solc",
    "version": "0.5.0+commit.1d4f565a.Emscripten.clang"
  },
  "schemaVersion": "3.0.6",
  "updatedAt": "2019-05-13T18:32:39.884Z",
  "devdoc": {
    "methods": {}
  },
  "userdoc": {
    "methods": {}
  }
}