{
  "contractName": "JournalResearcher",
  "abi": [
    {
      "constant": true,
      "inputs": [
        {
          "name": "",
          "type": "address"
        }
      ],
      "name": "addressId",
      "outputs": [
        {
          "name": "",
          "type": "uint256"
        }
      ],
      "payable": false,
      "stateMutability": "view",
      "type": "function",
      "signature": "0x078002ac"
    },
    {
      "constant": true,
      "inputs": [
        {
          "name": "",
          "type": "uint256"
        }
      ],
      "name": "idMember",
      "outputs": [
        {
          "name": "name",
          "type": "string"
        },
        {
          "name": "status",
          "type": "string"
        },
        {
          "name": "organization",
          "type": "string"
        },
        {
          "name": "email",
          "type": "string"
        },
        {
          "name": "published",
          "type": "uint256"
        }
      ],
      "payable": false,
      "stateMutability": "view",
      "type": "function",
      "signature": "0x86249375"
    },
    {
      "constant": true,
      "inputs": [],
      "name": "totalResearcherNum",
      "outputs": [
        {
          "name": "",
          "type": "uint256"
        }
      ],
      "payable": false,
      "stateMutability": "view",
      "type": "function",
      "signature": "0xf4fb4780"
    },
    {
      "inputs": [],
      "payable": false,
      "stateMutability": "nonpayable",
      "type": "constructor",
      "signature": "constructor"
    },
    {
      "constant": false,
      "inputs": [
        {
          "name": "_name",
          "type": "string"
        },
        {
          "name": "_status",
          "type": "string"
        },
        {
          "name": "_org",
          "type": "string"
        },
        {
          "name": "_email",
          "type": "string"
        }
      ],
      "name": "register",
      "outputs": [],
      "payable": false,
      "stateMutability": "nonpayable",
      "type": "function",
      "signature": "0x0e24c52c"
    },
    {
      "constant": false,
      "inputs": [
        {
          "name": "_addr",
          "type": "address"
        }
      ],
      "name": "getPublishedNum",
      "outputs": [
        {
          "name": "",
          "type": "uint256"
        }
      ],
      "payable": false,
      "stateMutability": "nonpayable",
      "type": "function",
      "signature": "0x3c95f370"
    },
    {
      "constant": false,
      "inputs": [
        {
          "name": "_addr",
          "type": "address"
        },
        {
          "name": "i",
          "type": "uint256"
        }
      ],
      "name": "getPublishedId",
      "outputs": [
        {
          "name": "",
          "type": "uint256"
        }
      ],
      "payable": false,
      "stateMutability": "nonpayable",
      "type": "function",
      "signature": "0xdca5a570"
    },
    {
      "constant": false,
      "inputs": [
        {
          "name": "_addr",
          "type": "address"
        },
        {
          "name": "id",
          "type": "uint256"
        }
      ],
      "name": "setPublishedID",
      "outputs": [],
      "payable": false,
      "stateMutability": "nonpayable",
      "type": "function",
      "signature": "0xc57acb2f"
    }
  ],
  "bytecode": "0x608060405234801561001057600080fd5b5060008081905550610f80806100276000396000f3fe608060405260043610610083576000357c0100000000000000000000000000000000000000000000000000000000900463ffffffff168063078002ac146100885780630e24c52c146100ed5780633c95f3701461037a57806386249375146103df578063c57acb2f146105de578063dca5a57014610639578063f4fb4780146106a8575b600080fd5b34801561009457600080fd5b506100d7600480360360208110156100ab57600080fd5b81019080803573ffffffffffffffffffffffffffffffffffffffff1690602001909291905050506106d3565b6040518082815260200191505060405180910390f35b3480156100f957600080fd5b506103786004803603608081101561011057600080fd5b810190808035906020019064010000000081111561012d57600080fd5b82018360208201111561013f57600080fd5b8035906020019184600183028401116401000000008311171561016157600080fd5b91908080601f016020809104026020016040519081016040528093929190818152602001838380828437600081840152601f19601f820116905080830192505050505050509192919290803590602001906401000000008111156101c457600080fd5b8201836020820111156101d657600080fd5b803590602001918460018302840111640100000000831117156101f857600080fd5b91908080601f016020809104026020016040519081016040528093929190818152602001838380828437600081840152601f19601f8201169050808301925050505050505091929192908035906020019064010000000081111561025b57600080fd5b82018360208201111561026d57600080fd5b8035906020019184600183028401116401000000008311171561028f57600080fd5b91908080601f016020809104026020016040519081016040528093929190818152602001838380828437600081840152601f19601f820116905080830192505050505050509192919290803590602001906401000000008111156102f257600080fd5b82018360208201111561030457600080fd5b8035906020019184600183028401116401000000008311171561032657600080fd5b91908080601f016020809104026020016040519081016040528093929190818152602001838380828437600081840152601f19601f8201169050808301925050505050505091929192905050506106eb565b005b34801561038657600080fd5b506103c96004803603602081101561039d57600080fd5b81019080803573ffffffffffffffffffffffffffffffffffffffff169060200190929190505050610a14565b6040518082815260200191505060405180910390f35b3480156103eb57600080fd5b506104186004803603602081101561040257600080fd5b8101908080359060200190929190505050610a73565b604051808060200180602001806020018060200186815260200185810385528a818151815260200191508051906020019080838360005b8381101561046a57808201518184015260208101905061044f565b50505050905090810190601f1680156104975780820380516001836020036101000a031916815260200191505b50858103845289818151815260200191508051906020019080838360005b838110156104d05780820151818401526020810190506104b5565b50505050905090810190601f1680156104fd5780820380516001836020036101000a031916815260200191505b50858103835288818151815260200191508051906020019080838360005b8381101561053657808201518184015260208101905061051b565b50505050905090810190601f1680156105635780820380516001836020036101000a031916815260200191505b50858103825287818151815260200191508051906020019080838360005b8381101561059c578082015181840152602081019050610581565b50505050905090810190601f1680156105c95780820380516001836020036101000a031916815260200191505b50995050505050505050505060405180910390f35b3480156105ea57600080fd5b506106376004803603604081101561060157600080fd5b81019080803573ffffffffffffffffffffffffffffffffffffffff16906020019092919080359060200190929190505050610d09565b005b34801561064557600080fd5b506106926004803603604081101561065c57600080fd5b81019080803573ffffffffffffffffffffffffffffffffffffffff16906020019092919080359060200190929190505050610e38565b6040518082815260200191505060405180910390f35b3480156106b457600080fd5b506106bd610ea9565b6040518082815260200191505060405180910390f35b60026020528060005260406000206000915090505481565b6000600260003373ffffffffffffffffffffffffffffffffffffffff1673ffffffffffffffffffffffffffffffffffffffff168152602001908152602001600020541415156107a2576040517f08c379a000000000000000000000000000000000000000000000000000000000815260040180806020018281038252601b8152602001807f43757272656e742075736572206861732072656769737465726564000000000081525060200191505060405180910390fd5b60006001826040518082805190602001908083835b6020831015156107dc57805182526020820191506020810190506020830392506107b7565b6001836020036101000a038019825116818451168082178552505050505050905001915050908152602001604051809103902054141515610885576040517f08c379a000000000000000000000000000000000000000000000000000000000815260040180806020018281038252601c8152602001807f43757272656e7420656d61696c2068617320726567697374657265640000000081525060200191505060405180910390fd5b600080815480929190600101919050555060008054905080600260003373ffffffffffffffffffffffffffffffffffffffff1673ffffffffffffffffffffffffffffffffffffffff16815260200190815260200160002081905550806001836040518082805190602001908083835b60208310151561091957805182526020820191506020810190506020830392506108f4565b6001836020036101000a03801982511681845116808217855250505050505090500191505090815260200160405180910390208190555060a06040519081016040528086815260200185815260200184815260200183815260200160008152506003600083815260200190815260200160002060008201518160000190805190602001906109a8929190610eaf565b5060208201518160010190805190602001906109c5929190610eaf565b5060408201518160020190805190602001906109e2929190610eaf565b5060608201518160030190805190602001906109ff929190610eaf565b50608082015181600401559050505050505050565b600060036000600260008573ffffffffffffffffffffffffffffffffffffffff1673ffffffffffffffffffffffffffffffffffffffff168152602001908152602001600020548152602001908152602001600020600401549050919050565b6003602052806000526040600020600091509050806000018054600181600116156101000203166002900480601f016020809104026020016040519081016040528092919081815260200182805460018160011615610100020316600290048015610b1f5780601f10610af457610100808354040283529160200191610b1f565b820191906000526020600020905b815481529060010190602001808311610b0257829003601f168201915b505050505090806001018054600181600116156101000203166002900480601f016020809104026020016040519081016040528092919081815260200182805460018160011615610100020316600290048015610bbd5780601f10610b9257610100808354040283529160200191610bbd565b820191906000526020600020905b815481529060010190602001808311610ba057829003601f168201915b505050505090806002018054600181600116156101000203166002900480601f016020809104026020016040519081016040528092919081815260200182805460018160011615610100020316600290048015610c5b5780601f10610c3057610100808354040283529160200191610c5b565b820191906000526020600020905b815481529060010190602001808311610c3e57829003601f168201915b505050505090806003018054600181600116156101000203166002900480601f016020809104026020016040519081016040528092919081815260200182805460018160011615610100020316600290048015610cf95780601f10610cce57610100808354040283529160200191610cf9565b820191906000526020600020905b815481529060010190602001808311610cdc57829003601f168201915b5050505050908060040154905085565b60036000600260008573ffffffffffffffffffffffffffffffffffffffff1673ffffffffffffffffffffffffffffffffffffffff16815260200190815260200160002054815260200190815260200160002060040160008154809291906001019190505550600060036000600260008673ffffffffffffffffffffffffffffffffffffffff1673ffffffffffffffffffffffffffffffffffffffff1681526020019081526020016000205481526020019081526020016000206004015490508160036000600260008773ffffffffffffffffffffffffffffffffffffffff1673ffffffffffffffffffffffffffffffffffffffff168152602001908152602001600020548152602001908152602001600020600501600083815260200190815260200160002081905550505050565b600060036000600260008673ffffffffffffffffffffffffffffffffffffffff1673ffffffffffffffffffffffffffffffffffffffff168152602001908152602001600020548152602001908152602001600020600501600083815260200190815260200160002054905092915050565b60005481565b828054600181600116156101000203166002900490600052602060002090601f016020900481019282601f10610ef057805160ff1916838001178555610f1e565b82800160010185558215610f1e579182015b82811115610f1d578251825591602001919060010190610f02565b5b509050610f2b9190610f2f565b5090565b610f5191905b80821115610f4d576000816000905550600101610f35565b5090565b9056fea165627a7a72305820e643b367d9b2d3d29009e4e12010201ee4e6481d037746a75876faa0ba19df5e0029",
  "source": "pragma solidity ^0.5.0;\n\ncontract JournalResearcher{\n    uint public totalResearcherNum;\n\n    struct Researcher {\n        string name;\n        string status;\n        string organization;\n        string email;\n        uint published;\n        mapping (uint => uint) papersId;\n    }\n\n    mapping (string => uint) emailId; \n    mapping (address => uint) public addressId;\n    mapping (uint => Researcher) public idMember;\n\n    constructor() public{\n        totalResearcherNum = 0;\n    }\n\n    function register(string memory _name, string memory _status, string memory _org, string memory _email) public {\n        require(addressId[msg.sender] == 0, \"Current user has registered\");\n        require(emailId[_email] == 0, \"Current email has registered\");\n        totalResearcherNum++;\n        uint _id = totalResearcherNum;  \n        addressId[msg.sender] = _id;\n        emailId[_email] = _id;\n        idMember[_id] = Researcher({\n            name: _name,\n            status: _status,\n            organization: _org,\n            email: _email,\n            published: 0\n        });\n    }\n    \n    function getPublishedNum(address _addr) public returns(uint){\n        return idMember[addressId[_addr]].published;\n    }\n\n    function getPublishedId(address _addr, uint i) public returns(uint){\n        return idMember[addressId[_addr]].papersId[i];\n    }\n\n    function setPublishedID(address _addr, uint id) public {\n        idMember[addressId[_addr]].published++;\n        uint paperId = idMember[addressId[_addr]].published;\n        idMember[addressId[_addr]].papersId[paperId] = id;\n    }\n}\n",
  "sourcePath": "/home/kevin/paperschain/contracts/JournalResearcher.sol",
  "compiler": {
    "name": "solc",
    "version": "0.5.0+commit.1d4f565a.Emscripten.clang"
  },
  "schemaVersion": "3.0.6",
  "updatedAt": "2019-05-18T20:03:12.412Z",
  "devdoc": {
    "methods": {}
  },
  "userdoc": {
    "methods": {}
  }
}