{
  "contractName": "Journal",
  "abi": [
    {
      "constant": true,
      "inputs": [],
      "name": "totalPaperNum",
      "outputs": [
        {
          "name": "",
          "type": "uint256"
        }
      ],
      "payable": false,
      "stateMutability": "view",
      "type": "function",
      "signature": "0x04bc9b14"
    },
    {
      "constant": true,
      "inputs": [
        {
          "name": "",
          "type": "uint256"
        }
      ],
      "name": "paperDict",
      "outputs": [
        {
          "name": "title",
          "type": "string"
        },
        {
          "name": "year",
          "type": "uint256"
        },
        {
          "name": "paperAbstract",
          "type": "string"
        },
        {
          "name": "passReviewed",
          "type": "bool"
        },
        {
          "name": "reviewedTimes",
          "type": "uint256"
        }
      ],
      "payable": false,
      "stateMutability": "view",
      "type": "function",
      "signature": "0xc31ceba0"
    },
    {
      "inputs": [],
      "payable": false,
      "stateMutability": "nonpayable",
      "type": "constructor",
      "signature": "constructor"
    },
    {
      "constant": false,
      "inputs": [
        {
          "name": "_title",
          "type": "string"
        },
        {
          "name": "_year",
          "type": "uint256"
        },
        {
          "name": "_paperAbstract",
          "type": "string"
        }
      ],
      "name": "uploadPaper",
      "outputs": [
        {
          "name": "",
          "type": "uint256"
        }
      ],
      "payable": false,
      "stateMutability": "nonpayable",
      "type": "function",
      "signature": "0x18de6414"
    },
    {
      "constant": false,
      "inputs": [
        {
          "name": "paperId",
          "type": "uint256"
        }
      ],
      "name": "getPaperInfo",
      "outputs": [
        {
          "name": "",
          "type": "string"
        }
      ],
      "payable": false,
      "stateMutability": "nonpayable",
      "type": "function",
      "signature": "0xfc31b3df"
    },
    {
      "constant": false,
      "inputs": [
        {
          "name": "_paperId",
          "type": "uint256"
        },
        {
          "name": "_accept",
          "type": "bool"
        },
        {
          "name": "_comment",
          "type": "string"
        }
      ],
      "name": "reviewPaper",
      "outputs": [],
      "payable": false,
      "stateMutability": "nonpayable",
      "type": "function",
      "signature": "0x47ba22ac"
    }
  ],
  "bytecode": "0x608060405234801561001057600080fd5b5060008081905550610a4c806100276000396000f3fe60806040526004361061006d576000357c0100000000000000000000000000000000000000000000000000000000900463ffffffff16806304bc9b141461007257806318de64141461009d57806347ba22ac1461021a578063c31ceba0146102f8578063fc31b3df14610431575b600080fd5b34801561007e57600080fd5b506100876104e5565b6040518082815260200191505060405180910390f35b3480156100a957600080fd5b50610204600480360360608110156100c057600080fd5b81019080803590602001906401000000008111156100dd57600080fd5b8201836020820111156100ef57600080fd5b8035906020019184600183028401116401000000008311171561011157600080fd5b91908080601f016020809104026020016040519081016040528093929190818152602001838380828437600081840152601f19601f820116905080830192505050505050509192919290803590602001909291908035906020019064010000000081111561017e57600080fd5b82018360208201111561019057600080fd5b803590602001918460018302840111640100000000831117156101b257600080fd5b91908080601f016020809104026020016040519081016040528093929190818152602001838380828437600081840152601f19601f8201169050808301925050505050505091929192905050506104eb565b6040518082815260200191505060405180910390f35b34801561022657600080fd5b506102f66004803603606081101561023d57600080fd5b81019080803590602001909291908035151590602001909291908035906020019064010000000081111561027057600080fd5b82018360208201111561028257600080fd5b803590602001918460018302840111640100000000831117156102a457600080fd5b91908080601f016020809104026020016040519081016040528093929190818152602001838380828437600081840152601f19601f8201169050808301925050505050505091929192905050506105c2565b005b34801561030457600080fd5b506103316004803603602081101561031b57600080fd5b810190808035906020019092919050505061071e565b60405180806020018681526020018060200185151515158152602001848152602001838103835288818151815260200191508051906020019080838360005b8381101561038b578082015181840152602081019050610370565b50505050905090810190601f1680156103b85780820380516001836020036101000a031916815260200191505b50838103825286818151815260200191508051906020019080838360005b838110156103f15780820151818401526020810190506103d6565b50505050905090810190601f16801561041e5780820380516001836020036101000a031916815260200191505b5097505050505050505060405180910390f35b34801561043d57600080fd5b5061046a6004803603602081101561045457600080fd5b8101908080359060200190929190505050610891565b6040518080602001828103825283818151815260200191508051906020019080838360005b838110156104aa57808201518184015260208101905061048f565b50505050905090810190601f1680156104d75780820380516001836020036101000a031916815260200191505b509250505060405180910390f35b60005481565b60008060008154809291906001019190505550610506610949565b60a06040519081016040528086815260200185815260200184815260200160001515815260200160008152509050806001600080548152602001908152602001600020600082015181600001908051906020019061056592919061097b565b5060208201518160010155604082015181600201908051906020019061058c92919061097b565b5060608201518160030160006101000a81548160ff02191690831515021790555060808201518160040155905050509392505050565b600015156001600085815260200190815260200160002060030160009054906101000a900460ff161515141515610661576040517f08c379a000000000000000000000000000000000000000000000000000000000815260040180806020018281038252601c8152602001807f5468652070617065722068617320706173736564207265766965772e0000000081525060200191505060405180910390fd5b60006001600085815260200190815260200160002090508060040160008154809291906001019190505550828160030160006101000a81548160ff02191690831515021790555060408051908101604052808415158152602001838152508160050160008360040154815260200190815260200160002060008201518160000160006101000a81548160ff021916908315150217905550602082015181600101908051906020019061071492919061097b565b5090505050505050565b6001602052806000526040600020600091509050806000018054600181600116156101000203166002900480601f0160208091040260200160405190810160405280929190818152602001828054600181600116156101000203166002900480156107ca5780601f1061079f576101008083540402835291602001916107ca565b820191906000526020600020905b8154815290600101906020018083116107ad57829003601f168201915b505050505090806001015490806002018054600181600116156101000203166002900480601f01602080910402602001604051908101604052809291908181526020018280546001816001161561010002031660029004801561086e5780601f106108435761010080835404028352916020019161086e565b820191906000526020600020905b81548152906001019060200180831161085157829003601f168201915b5050505050908060030160009054906101000a900460ff16908060040154905085565b6060600160008381526020019081526020016000206000018054600181600116156101000203166002900480601f01602080910402602001604051908101604052809291908181526020018280546001816001161561010002031660029004801561093d5780601f106109125761010080835404028352916020019161093d565b820191906000526020600020905b81548152906001019060200180831161092057829003601f168201915b50505050509050919050565b60a060405190810160405280606081526020016000815260200160608152602001600015158152602001600081525090565b828054600181600116156101000203166002900490600052602060002090601f016020900481019282601f106109bc57805160ff19168380011785556109ea565b828001600101855582156109ea579182015b828111156109e95782518255916020019190600101906109ce565b5b5090506109f791906109fb565b5090565b610a1d91905b80821115610a19576000816000905550600101610a01565b5090565b9056fea165627a7a7230582038b5c881862c5e695579e06e04d625fcafbd3aefcbaef6ee68961954919ca6410029",
  "source": "pragma solidity ^0.5.0;\n\nimport \"./JournalResearcher.sol\" as researcher;\n\ncontract Journal {\n    uint public totalPaperNum;\n\n    struct Review {\n        bool accept;\n        string comment;\n    }\n\n    struct Paper {\n        string title;\n        uint year;\n        string paperAbstract;\n        bool passReviewed;\n        uint reviewedTimes;\n        mapping(uint => Review) reviewLog;\n    }\n\n    mapping(uint => Paper) public paperDict;\n\n    constructor() public {\n        totalPaperNum = 0;\n    }\n\n\n    function uploadPaper(string memory _title, uint _year, string memory _paperAbstract) public returns(uint){\n        totalPaperNum++;\n        Paper memory newPaper = Paper({\n            title: _title,\n            year: _year,\n            paperAbstract: _paperAbstract,\n            passReviewed: false,\n            reviewedTimes: 0\n        });\n        paperDict[totalPaperNum] = newPaper;\n    }\n\n    function getPaperInfo(uint paperId) public returns(string memory){\n        return paperDict[paperId].title;\n    }\n\n    function reviewPaper(uint _paperId, bool _accept, string memory _comment) public {\n        require(paperDict[_paperId].passReviewed == false, \"The paper has passed review.\");\n\n        Paper storage reviewedWork = paperDict[_paperId];\n        reviewedWork.reviewedTimes++;\n        reviewedWork.passReviewed = _accept;\n        reviewedWork.reviewLog[reviewedWork.reviewedTimes] = Review(_accept, _comment);\n    }\n}\n",
  "sourcePath": "/home/kevin/paperschain/contracts/Journal.sol",
  "compiler": {
    "name": "solc",
    "version": "0.5.0+commit.1d4f565a.Emscripten.clang"
  },
  "schemaVersion": "3.0.6",
  "updatedAt": "2019-05-18T20:03:12.984Z",
  "devdoc": {
    "methods": {}
  },
  "userdoc": {
    "methods": {}
  }
}